:100000000C9465000C948D000C948D000C948D0064
:100010000C948D000C948D000C948D000C948D002C
:100020000C948D000C948D000C948D000C948D001C
:100030000C948D000C948D000C948D000C948D000C
:100040000C94570A0C948D000C94380D0C946A0D86
:100050000C948D000C948D000C948D000C948D00EC
:100060000C9411080C948D0000000008000201009F
:100070000003040700000000000000000102040863
:100080001020408001020408102001020408102002
:10009000040404040404040402020202020203032E
:1000A00003030303000000002300260029000000D2
:1000B0000000250028002B0000000000240027007D
:1000C0002A00D403D90573079A0D11241FBECFEF60
:1000D000D8E0DEBFCDBF12E0A0E0B1E0E0EDFFE18F
:1000E00002C005900D92AC39B107D9F724E0ACE914
:1000F000B2E001C01D92AF31B207E1F710E0CAECE7
:10010000D0E004C02297FE010E946E0FC23CD107CE
:10011000C9F70E94DE0D0C94E60F0C940000BF920C
:10012000CF92DF92EF92FF920F931F93CF93DF93C3
:10013000CDB7DEB7C75AD1090FB6F894DEBF0FBEF0
:10014000CDBF81E1F82EE9E2F1E0DE0193968F2D3B
:1001500001900D928A95E1F788E0EAE3F1E0DE0193
:10016000A056BF4F01900D928A95E1F78EE0E2E430
:10017000F1E0DE01A05ABF4F01900D928A95E1F7A0
:100180008EE0E0E5F1E0DE01AE5ABF4F01900D9246
:100190008A95E1F7EEE5F1E0DE0152968F2D0190B0
:1001A0000D928A95E1F78BE0EFE6F1E0DE01A658CB
:1001B000BF4F01900D928A95E1F78AE0EAE7F1E0FE
:1001C000DE01AB57BF4F01900D928A95E1F78FE0AA
:1001D000E4E8F1E0DE01AD5BBF4F01900D928A953E
:1001E000E1F788E0E3E9F1E0DE01A856BF4F0190B6
:1001F0000D928A95E1F78FE0EBE9F1E0DE01D4960C
:1002000001900D928A95E1F789E0E2E3F2E0DE01E8
:10021000A157BF4F01900D928A95E1F7EAEAF1E00C
:10022000DE0111968F2D01900D928A95E1F78CE0F9
:10023000EBEBF1E0DE01A259BF4F01900D928A95E0
:10024000E1F740E060E081EA92E00E94C00960E1ED
:1002500070E0CE0183960E94C90468EC70E080E0F3
:1002600090E00E94C40A41E060E081EA92E00E94CE
:10027000C00966E070E0CE0180569F4F0E94C9041D
:1002800068EC70E080E090E00E94C40A81EA92E0AD
:100290000E94B20940E060E081EA92E00E94C00959
:1002A00060E170E0CE01805A9F4F0E94C90468EC63
:1002B00070E080E090E00E94C40A41E060E081EAE2
:1002C00092E00E94C0096DE070E0CE018E5A9F4F0F
:1002D0000E94C90468EC70E080E090E00E94C40ACB
:1002E00081EA92E00E94B2096FE070E0CE0142968E
:1002F0000E94C90468EC70E080E090E00E94C40AAB
:1003000081EA92E00E94B20940E060E081EA92E076
:100310000E94C0096AE070E0CE0186589F4F0E949B
:10032000C90468EC70E080E090E00E94C40A41E0FB
:1003300060E081EA92E00E94C00968E070E0CE01CE
:100340008B579F4F0E94C90468EC70E080E090E0FA
:100350000E94C40A81EA92E00E94B20940E060E093
:1003600081EA92E00E94C0096CE070E0CE018D5BF2
:100370009F4F0E94C90468EC70E080E090E00E940A
:10038000C40A41E060E081EA92E00E94C00967E0AF
:1003900070E0CE0188569F4F0E94C90468EC70E05F
:1003A00080E090E00E94C40A81EA92E00E94B209D3
:1003B00040E060E081EA92E00E94C0096EE070E0F7
:1003C000CE01C4960E94C90468EC70E080E090E021
:1003D0000E94C40A41E060E081EA92E00E94C00904
:1003E00068E070E0CE0181579F4F0E94C90468EC1D
:1003F00070E080E090E00E94C40A81EA92E00E94EE
:10040000B20940E060E081EA92E00E94C00960E148
:1004100070E0CE0101960E94C90468EC70E080E0B3
:1004200090E00E94C40A81EA92E00E94B20940E092
:1004300062E081EA92E00E94C0096BE070E0CE01C8
:1004400082599F4F0E94C90441E060E081EA92E036
:100450000E94C0096AE171E081EA92E00E942B0EDD
:1004600068EE73E080E090E00E94C40AD0900C0136
:10047000C0900E01B0901001E12C8B2D0E94CA0B90
:100480008C018C2D0E94CA0B8D2D0E94CA0B01304D
:10049000110519F420E030E004C021E030E0EE2442
:1004A000E394019719F4232B41F301C0E12C64EF8D
:1004B00071E080E090E00E94C40AEE2009F443CE8F
:1004C00041E060E081EA92E00E94C00981EA92E0A6
:1004D0000E94B2098DE0E7ECF1E0DE011196019097
:1004E0000D928A95E1F741E062E081EA92E00E9494
:1004F000C0096CE070E0CE0101960E94C90468EC6E
:1005000070E080E090E00E94C40A81EA92E00E94DC
:10051000B209C955DF4F0FB6F894DEBF0FBECDBF8D
:10052000DF91CF911F910F91FF90EF90DF90CF90CF
:10053000BF90089581EA92E00E94FE0962E08091F6
:1005400010010E945B0B62E080910E010E945B0B28
:1005500062E080910C010E945B0B61E080910A01D6
:100560000E945B0B61E0809108010E945B0B61E0DF
:10057000809106010E945B0B26E040E855E260E0B6
:1005800070E082E893E00E94D60C0E9467050C940C
:100590008F004F925F926F927F928F929F92AF9255
:1005A000BF92CF92DF92EF92FF920F931F93CF9360
:1005B000DF93CDB7DEB74DB65EB680910401909162
:1005C0000501880F991F2DB73EB7281B390B0FB6B1
:1005D000F8943EBF0FBE2DBFEDB7FEB731965F0159
:1005E000281B390B0FB6F8943EBF0FBE2DBF8DB739
:1005F0009EB701964C0180919E02811139C00E94E4
:1006000026053401C12CD12C809104019091050163
:10061000C816D90654F524E030E040E050E061E02F
:1006200070E080E090E00E94030FDC01CB0190932A
:10063000A00280939F022091060130910701409112
:1006400008015091090160910A0170910B010E940B
:10065000410680919F029091A002F30181939193B2
:100660003F01FFEFCF1ADF0ACFCF81E080939E02D8
:1006700080919E028823E9F10E94EB043501C12C90
:10068000D12C8091040190910501C816D90614F56A
:10069000E0900601F0900701009108011091090116
:1006A00020910A0130910B0140910C0150910D01F4
:1006B00060910E0170910F018091100190911101D4
:1006C0000E94E405F301819391933F01FFEFCF1A5C
:1006D000DF0AD7CF60E08DE00E94940B60E08CE0F1
:1006E0000E94940B60E08BE00E94940B81E0809369
:1006F0009D0280919D024091040150910501882343
:10070000B9F0F401D50120E030E080E090E024175A
:1007100035075CF4019111916D917D9106171707D2
:1007200009F401962F5F3F4FF2CF10929D0202C055
:1007300080E090E08417950731F40E94B30581E0D2
:1007400080939C0204C00E94930510929C02209109
:100750009C028091040190910501222319F00E94CE
:10076000DF0302C00E94E10390930501809304011E
:1007700060919C020E94F90310929E020FB6F894B9
:100780005EBE0FBE4DBEDF91CF911F910F91FF90C6
:10079000EF90DF90CF90BF90AF909F908F907F9021
:1007A0006F905F904F9008950F9300E022E040E13A
:1007B00067E281EA92E00E943E090F910895019656
:1007C0000895CF93DF93EC018230910514F00197E7
:1007D0000DC040E064E08DEA92E00E94C00964ED43
:1007E00071E08DEA92E00E942B0ECE01DF91CF9155
:1007F0000895AF92BF92CF92DF92EF92FF920F9344
:100800001F93CF93DF93CDB7DEB72F970FB6F89432
:10081000DEBF0FBECDBF7C016C0182E0C81AD108DB
:100820008DEA92E06623F9F00E94B2096EED71E064
:100830008DEA92E00E942B0E68EE73E080E090E07B
:100840000E94C40A41E062E08DEA92E00E94C00981
:1008500069EE71E08DEA92E00E942B0E68EE73E083
:1008600080E090E038C00E94B2098FE0E5E1F2E05C
:10087000DE01119601900D928A95E1F78E010F5FCE
:100880001F4F5E01EFE0AE0EB11CF80161918F01C8
:100890008DEA92E00E942D0E68EC70E080E090E01E
:1008A0000E94C40A0A151B0581F760E971E080E027
:1008B00090E00E94C40A41E060E08DEA92E00E946C
:1008C000C00963EF71E08DEA92E00E942B0E64EFA5
:1008D00071E080E090E00E94C40A64EF71E080E083
:1008E00090E00E94C40A8DEA92E00E94B20940E0C2
:1008F00060E08DEA92E00E94C0096FEF71E08DEA3E
:1009000092E00E942B0E4AE050E0B6018DEA92E0A0
:100910000E94D70E64EF71E080E090E00E94C40A6C
:100920008DEA92E00E94B20967E072E08DEA92E0FF
:100930000E942B0E4AE050E0B7018DEA92E00E943F
:10094000D70E64EF71E080E090E00E94C40A41E0BD
:1009500060E08DEA92E00E94C0096DE472E08DEAE9
:1009600092E00E942B0E60ED77E080E090E02F9601
:100970000FB6F894DEBF0FBECDBFDF91CF911F91B0
:100980000F91FF90EF90DF90CF90BF90AF900C94BD
:10099000C40AEF92FF920F931F93CF93DF938C01C2
:1009A0007B01EC01CE01801B910B8E159F0564F439
:1009B00069918DEA92E00E942D0E68EC70E080E073
:1009C00090E00E94C40AEECFDF91CF911F910F916A
:1009D000FF90EF900895CF93DF93CDB7DEB7679781
:1009E0000FB6F894DEBF0FBECDBF8DEA92E00E9435
:1009F000B2098BE0E4E2F2E0DE011D9601900D9277
:100A00008A95E1F78CE0EFE2F2E0DE0111960190C9
:100A10000D928A95E1F76AE070E0CE010D960E9492
:100A2000C90441E060E08DEA92E00E94C0096BE0F9
:100A300070E0CE0101960E94C90467960FB6F89443
:100A4000DEBF0FBECDBFDF91CF910895CF93DF936F
:100A5000CDB7DEB76A970FB6F894DEBF0FBECDBF35
:100A60008DEA92E00E94B2098DE0EBE3F2E0DE0154
:100A70001E9601900D928A95E1F78DE0E8E4F2E090
:100A8000DE01119601900D928A95E1F76CE070E01D
:100A9000CE010E960E94C90441E060E08DEA92E02A
:100AA0000E94C0096CE070E0CE0101960E94C9046A
:100AB00068EC70E080E090E00E94C40A6A960FB68D
:100AC000F894DEBF0FBECDBFDF91CF910895CF93D5
:100AD000DF93CDB7DEB72D970FB6F894DEBF0FBE0C
:100AE000CDBF40E062E08DEA92E00E94C0098DE057
:100AF000E5E5F2E0DE01119601900D928A95E1F7AD
:100B00006CE070E0CE0101960E94C9048DEA92E08B
:100B10000E94B2092D960FB6F894DEBF0FBECDBF6E
:100B2000DF91CF910895CF93DF938DEA92E00E94F9
:100B3000B20962E672E08DEA92E00E942B0EC8E1F3
:100B4000D0E08DEA92E00E94F50968EC70E080E068
:100B500090E00E94C40A2197A1F78DEA92E0DF910C
:100B6000CF910C94B209CF93DF938DEA92E00E946B
:100B7000B2096BE672E08DEA92E00E942B0E68ECFF
:100B800070E080E090E00E94C40AC8E1D0E08DEA05
:100B900092E00E94F50968EC70E080E090E00E942D
:100BA000C40A2197A1F78DEA92E0DF91CF910C94CE
:100BB000B2090F9300E022E040E167E28DEA92E0A3
:100BC0000E943E090F9108958F929F92AF92BF921B
:100BD000CF92DF92EF92FF920F931F93CF93DF9309
:100BE000F82E962E842E122F8F2D0E94CA0BEC0108
:100BF000892D0E94CA0B5C01882D0E94CA0B6C01D2
:100C0000219739F061E0812F0E94940BC1E0D0E080
:100C100006C060E0812F0E94940BC0E0D0E0AA944F
:100C2000AB2839F061E0802F0E94940BC2E0D0E045
:100C300004C060E0802F0E94940BCA94CD2839F044
:100C400061E08E2D0E94940BC3E0D0E006C060E00E
:100C50008E2D0E94940B209739F26CE271E080E0B7
:100C600090E00E94C40ACE01DF91CF911F910F91B5
:100C7000FF90EF90DF90CF90BF90AF909F908F90BC
:100C80000895FF920F931F93CF93DF93EC01F62EFD
:100C9000042F122F61E08F2D0E945B0B61E0802FEB
:100CA0000E945B0B61E0812F0E945B0BC130D1057C
:100CB00079F461E08F2D0E94940B6AEF70E080E080
:100CC00090E00E94C40A60E08F2D0E94940B1CC02B
:100CD00060E08F2D0E94940B6AEF70E080E090E05E
:100CE0000E94C40AC230D10579F461E0802F0E94CD
:100CF000940B6AEF70E080E090E00E94C40A60E02C
:100D0000802F0E94940B1FC060E0802F0E94940BE4
:100D10006AEF70E080E090E00E94C40A239799F4A3
:100D200061E0812F0E94940B6AEF70E080E090E018
:100D30000E94C40A60E0812FDF91CF911F910F9133
:100D4000FF900C94940B60E0812F0E94940B6AEF4B
:100D500070E080E090E0DF91CF911F910F91FF90C4
:100D60000C94C40A8091E90290E02091EA02821B6F
:100D7000910908952091EA028091E902281750F420
:100D8000E22FF0E0E551FD4F808190E02F5F20934E
:100D9000EA0208958FEF9FEF0895E091EA028091B3
:100DA000E902E81730F4F0E0E551FD4F808190E072
:100DB00008958FEF9FEF08950895CF92DF92EF92FD
:100DC000FF920F931F93CF93DF937C01CB018A0196
:100DD0002091C502222389F0EB016B01C40ED51EC0
:100DE000CC15DD0569F06991D701ED91FC91019079
:100DF000F081E02DC7010995F3CF642F0E94E80729
:100E0000C801DF91CF911F910F91FF90EF90DF907C
:100E1000CF900895CF93DF931F92CDB7DEB769834C
:100E20002091C5022223D1F02091C602203240F049
:100E300021E030E0FC013383228380E090E015C0A4
:100E40008091C702E82FF0E0E853FD4F998190832D
:100E50008F5F8093C7028093C60205C061E0CE0118
:100E600001960E94E80781E090E00F90DF91CF911A
:100E70000895FC011382128248EE53E060E070E0B6
:100E8000448355836683778388E792E091838083E8
:100E900008951092EA021092E9021092C70210928D
:100EA000C6020C94770781E08093C5026093E80244
:100EB0001092C7021092C60208950F93062F21E0E8
:100EC0004091C60268EC72E08091E8020E949507AA
:100ED0001092C7021092C6021092C5020F91089597
:100EE00061E00C945D0789EB92E00C943907109255
:100EF000780381E0809376031092750361E082E1CC
:100F00000E94940B61E083E10E94940BE9EBF0E016
:100F100080818E7F808380818D7F808388E4809331
:100F2000B80085E48093BC0008950F93413208F027
:100F300046C0909178039111FCCF92E09093780392
:100F4000009376039FEF90930B031092500340930E
:100F50004F03FB0161E573E0DB019A2F961B9417A9
:100F600018F491919D93F9CF1092770390917703A4
:100F7000880F892B8093770380917503813041F42A
:100F800010927503809177038093BB0085EC01C0BC
:100F900085EE8093BC00222321F08091780382307B
:100FA000E1F380910B038F3F61F080910B0380325E
:100FB00051F080910B03803341F483E007C081E05E
:100FC00005C080E003C082E001C084E00F91089575
:100FD000613298F420917803243089F460932D03D2
:100FE000FC018FE293E0DC012A2F281B261718F45E
:100FF00021912D93F9CF80E0089581E0089582E05A
:10100000089585ED8093BC008091BC0084FDFCCFE9
:1010100010927803089585EC8093BC0010927803B9
:1010200008951F920F920FB60F9211242F933F93A2
:101030004F935F936F937F938F939F93AF93BF93E0
:10104000EF93FF938091B900887F803609F49CC0AC
:1010500068F5883209F45BC090F4803109F454C01B
:1010600038F4882309F4F5C0883009F44DC0F5C080
:10107000883109F44CC0803209F45DC0EEC0803480
:1010800009F468C048F4803309F455C0883309F086
:10109000E4C080930B03A8C0803509F44FC08835A5
:1010A00009F45DC0883409F0D8C0D5C0883909F486
:1010B000C6C0A8F4883709F467C038F4883609F444
:1010C00063C0803709F460C0C8C0883809F4B7C06D
:1010D000803909F45FC0803809F0BFC05BC0803B35
:1010E00009F485C038F4803A09F466C0883A09F4F6
:1010F0007EC0B3C0803C09F4A6C0883C09F4A3C0FC
:10110000883B09F489C0A9C08091770310C09091F1
:10111000500380914F03981770F5E091500381E0E0
:101120008E0F80935003F0E0EF5AFC4F8081809344
:10113000BB0085EC85C080930B038DC0E09150030C
:1011400081E08E0F809350038091BB00F0E0EF5A56
:10115000FC4F80839091500380914F036DC0E091CC
:10116000500381E08E0F809350038091BB00F0E02C
:10117000EF5AFC4F80838091760381116CC081E02F
:101180008093750384EA60C083E0809378031092B3
:101190000C03CFCF80910C03803208F050C0E09157
:1011A0000C0381E08E0F80930C038091BB00F0E074
:1011B000E35FFC4F8083BDCF80910C03803230F41D
:1011C000E0910C03F0E0E35FFC4F10820E94010805
:1011D00060910C0370E0E0917103F09172038DE077
:1011E00093E0099510920C030E940B0836C084E02E
:1011F0008093780310922E0310922D03E0917303D5
:10120000F0917403099580912D03811105C081E04F
:1012100080932D0310922F03E0912E0381E08E0F17
:1012200080932E03F0E0E15DFC4F80818093BB0052
:1012300090912E0380912D03981708F47ACF85E8BA
:101240008093BC000AC085EC8093BC0010927803A8
:1012500004C010920B030E940108FF91EF91BF910F
:10126000AF919F918F917F916F915F914F913F913E
:101270002F910F900FBE0F901F9018950F93FC01A8
:101280001382128288E892E091838083648340878E
:101290002187028788E083870F9108951F93CF935A
:1012A000DF93EC01162F6C8189EB92E00E945307CB
:1012B000E091B902F091BA026B85612B0190F08147
:1012C000E02D89EB92E0099589EB92E0DF91CF91D7
:1012D0001F910C9470071F93CF93DF93EC01162F8F
:1012E00064600E944E0981E090E00E94EC0A612F48
:1012F0006B7FCE010E944E0982E390E0DF91CF9197
:101300001F910C94EC0A1F93CF93DF93EC01162FDF
:101310000E944E09612FCE01DF91CF911F910C9455
:101320006B09EF92FF921F93CF93DF931F92CDB77C
:10133000DEB77C01162F607F642B49830E948309EE
:1013400080E1189FB00111244981642BC7010F90DF
:10135000DF91CF911F91FF90EF900C94830940E0B3
:101360000C94910961E00E94AF0980ED97E00C9424
:10137000EC0A62E00E94AF0980ED97E00C94EC0A61
:10138000CF93DF93CDB7DEB728970FB6F894DEBFC3
:101390000FBECDBF28E0E2E1F1E0DE011196019041
:1013A0000D922A95E1F7FC012185241710F44FEFE7
:1013B000420FFE013196E40FF11DE40FF11D208173
:1013C000260F2068622F28960FB6F894DEBF0FBE56
:1013D000CDBFDF91CF910C94AF09FC016681262F20
:1013E000246026836C600C94AF096CE10C94AF0907
:1013F00041E00E94910981E090E00895CF93DF934E
:10140000EC0189EB92E00E9449071D8289858230B8
:1014100010F098E09D839A85992329F0813019F482
:101420008D8184608D8362E370E080E090E00E94B3
:10143000C40A6B85CE010E944E0968EE73E080E01D
:1014400090E00E94C40A60E3CE010E94830984E90F
:1014500091E10E94EC0A60E3CE010E94830984E9D5
:1014600091E10E94EC0A60E3CE010E94830986E9C3
:1014700090E00E94EC0A60E2CE010E9483096D8137
:101480006062CE010E94AF0984E08E83CE010E948B
:10149000ED09CE010E94B20982E08F8366E0CE01A1
:1014A0000E94AF09CE01DF91CF910C94B9091F9230
:1014B0000F920FB60F9211242F933F938F939F9308
:1014C000AF93BF9380917A0390917B03A0917C03AB
:1014D000B0917D033091790323E0230F2D3720F461
:1014E0000196A11DB11D05C026E8230F0296A11D7E
:1014F000B11D2093790380937A0390937B03A0938B
:101500007C03B0937D0380917E0390917F03A09133
:101510008003B09181030196A11DB11D80937E03CC
:1015200090937F03A0938003B0938103BF91AF9109
:101530009F918F913F912F910F900FBE0F901F9011
:1015400018953FB7F89480917E0390917F03A09106
:101550008003B091810326B5A89B05C02F3F19F0E9
:101560000196A11DB11D3FBF6627782F892F9A2FA5
:10157000620F711D811D911D42E0660F771F881F4C
:10158000991F4A95D1F70895CF92DF92EF92FF927B
:10159000CF93DF936B017C010E94A10AEB01C11480
:1015A000D104E104F10489F00E941F0F0E94A10AF6
:1015B0006C1B7D0B683E734090F381E0C81AD10824
:1015C000E108F108C851DC4FEACFDF91CF91FF90DD
:1015D000EF90DF90CF9008958230910538F0880F1A
:1015E000991F880F991F05970197F1F7089578942F
:1015F00084B5826084BD84B5816084BD85B5826018
:1016000085BD85B5816085BDEEE6F0E080818160B5
:101610008083E1E8F0E010828081826080838081B5
:1016200081608083E0E8F0E0808181608083E1EB8D
:10163000F0E0808184608083E0EBF0E08081816075
:101640008083EAE7F0E0808184608083808182602B
:101650008083808181608083808180688083109214
:10166000C1000895833081F028F4813099F08230F0
:10167000A1F008958730A9F08830B9F08430D1F412
:10168000809180008F7D03C0809180008F77809350
:101690008000089584B58F7702C084B58F7D84BDA6
:1016A00008958091B0008F7703C08091B0008F7D46
:1016B0008093B0000895CF93DF9390E0FC01E4584D
:1016C000FF4F2491FC01E057FF4F8491882349F19B
:1016D00090E0880F991FFC01E854FF4FA591B49149
:1016E00082559F4FFC01C591D4919FB7611108C0ED
:1016F000F8948C91209582238C93888182230AC050
:10170000623051F4F8948C91322F309583238C936E
:101710008881822B888304C0F8948C91822B8C93CF
:101720009FBFDF91CF9108950F931F93CF93DF93C6
:101730001F92CDB7DEB7282F30E0F901E859FF4FEF
:101740008491F901E458FF4F1491F901E057FF4FDC
:1017500004910023C9F0882321F069830E94320B91
:101760006981E02FF0E0EE0FFF1FE255FF4FA591DA
:10177000B4919FB7F8948C91611103C010958123A7
:1017800001C0812B8C939FBF0F90DF91CF911F9150
:101790000F910895CF93DF93282F30E0F901E85996
:1017A000FF4F8491F901E458FF4FD491F901E057BC
:1017B000FF4FC491CC2391F081110E94320BEC2F8A
:1017C000F0E0EE0FFF1FEC55FF4FA591B4912C9167
:1017D0002D2381E090E021F480E002C080E090E0E1
:1017E000DF91CF910895FC01818D228D90E0805C86
:1017F0009F4F821B91098F7399270895FC01918D4A
:10180000828D981731F0828DE80FF11D858D90E063
:1018100008958FEF9FEF0895FC01918D828D9817A9
:1018200061F0828DDF01A80FB11D5D968C91928DC4
:101830009F5F9F73928F90E008958FEF9FEF0895C1
:1018400080E99DE0892B49F080E090E0892B29F028
:101850000E94900D81110C9400000895FC01848D6C
:10186000DF01A80FB11DA35ABF4F2C91848D90E0CA
:1018700001968F739927848FA689B7892C93A089A5
:10188000B1898C9180648C93938D848D981306C05C
:101890000288F389E02D80818F7D80830895CF9326
:1018A000DF93EC01888D8823C9F0EA89FB89808168
:1018B00085FD05C0A889B9898C9186FD0FC00FB63A
:1018C00007FCF5CF808185FFF2CFA889B9898C917B
:1018D00085FFEDCFCE010E942E0CE7CFDF91CF9197
:1018E0000895CF92DF92FF920F931F93CF93DF93D0
:1018F0001F92CDB7DEB76C0181E0D60158968C936C
:1019000058975B969C915B975C968C915C9798132B
:1019100007C05096ED91FC915197808185FD2EC0B6
:10192000F601038D10E00F5F1F4F0F731127F02E8C
:10193000F601848DF81211C00FB607FCF9CFD6015D
:101940005096ED91FC915197808185FFF1CFC601B2
:1019500069830E942E0C6981EBCF838DE80FF11D06
:10196000E35AFF4F6083D6015B960C935B975296C8
:10197000ED91FC915397808180620CC0D601569600
:10198000ED91FC91579760835096ED91FC915197A2
:1019900080818064808381E090E00F90DF91CF911F
:1019A0001F910F91FF90DF90CF900895BF92CF923B
:1019B000DF92EF92FF92CF93DF93EC016A017B01FC
:1019C000B22EE889F98982E08083411581EE5807BB
:1019D00061057105A1F060E079E08DE390E0A70179
:1019E00096010E94200F2150310941095109569555
:1019F000479537952795211580E1380798F0E889B4
:101A0000F989108260E874E88EE190E0A701960100
:101A10000E94200F215031094109510956954795DF
:101A200037952795EC85FD853083EE85FF852083EE
:101A3000188EEC89FD89B082EA89FB8980818061FA
:101A40008083EA89FB89808188608083EA89FB89B9
:101A5000808180688083EA89FB8980818F7D808393
:101A6000DF91CF91FF90EF90DF90CF90BF900895DE
:101A70001F920F920FB60F9211242F938F939F9363
:101A8000EF93FF93E0919203F09193038081E091B3
:101A90009803F091990382FD12C0908180919B037D
:101AA0008F5F8F7320919C03821751F0E0919B030D
:101AB000F0E0EE57FC4F958F80939B0301C080812F
:101AC000FF91EF919F918F912F910F900FBE0F90EB
:101AD0001F9018951F920F920FB60F9211242F93FB
:101AE0003F934F935F936F937F938F939F93AF93A6
:101AF000BF93EF93FF9382E893E00E942E0CFF9137
:101B0000EF91BF91AF919F918F917F916F915F9175
:101B10004F913F912F910F900FBE0F901F901895EE
:101B200082E893E00E94F30B21E0892B09F420E086
:101B3000822F0895109285031092840388EE93E01B
:101B4000A0E0B0E08093860390938703A09388037E
:101B5000B093890380E992E090938303809382039A
:101B600085EC90E090938F0380938E0384EC90E05B
:101B7000909391038093900380EC90E09093930373
:101B80008093920381EC90E090939503809394036B
:101B900082EC90E0909397038093960386EC90E01C
:101BA000909399038093980310929B0310929C0347
:101BB00010929D0310929E03089508950E94F70AC3
:101BC0000E94DD0D0E949A02C0E2DCE00E94C90280
:101BD0002097E1F30E94200CF9CFCF92DF92EF9291
:101BE000FF920F931F93CF93DF936C017A01EB0168
:101BF000E60EF71E00E010E0CE15DF0561F06991FA
:101C0000D601ED91FC910190F081E02DC60109957E
:101C1000080F191FF1CFC801DF91CF911F910F91CC
:101C2000FF90EF90DF90CF9008956115710581F0DE
:101C3000DB010D900020E9F7AD0141505109461B31
:101C4000570BDC01ED91FC910280F381E02D0994AA
:101C500080E090E008950C94150EDC01ED91FC916C
:101C60000190F081E02D09948F929F92AF92BF92E4
:101C7000CF92DF92EF92FF920F931F93CF93DF9358
:101C8000CDB7DEB7A1970FB6F894DEBF0FBECDBFBC
:101C90007C01C42EE52FCB01D22E19A221E02D15F7
:101CA00010F02AE0D22E8E010F5D1F4F8D2C912C4B
:101CB000A12CB12C6C2D7E2FA50194010E94200F28
:101CC0008C2DD29E80191124015011098A3014F4F0
:101CD000805D01C0895CF8018083211531054105D3
:101CE000510521F0C22EE32FCA01E4CFB801C7018C
:101CF0000E94150EA1960FB6F894DEBF0FBECDBFA1
:101D0000DF91CF911F910F91FF90EF90DF90CF90D7
:101D1000BF90AF909F908F900895CF92DF92EF92F7
:101D2000FF920F931F93CF93DF93EC016A017B0126
:101D30002115310579F4E881F9810190F081E02DD8
:101D4000642FDF91CF911F910F91FF90EF90DF9063
:101D5000CF9009942A303105E9F477FF1AC06DE27B
:101D60000E942D0E8C0144275527BA014C195D099C
:101D70006E097F092AE0CE010E94340E800F911F68
:101D8000DF91CF911F910F91FF90EF90DF90CF9057
:101D900008952AE0B701A601CE01DF91CF911F91EE
:101DA0000F91FF90EF90DF90CF900C94340E9A013A
:101DB000AB01662757FD6095762F0C948D0ECF935F
:101DC000DF9300D000D0CDB7DEB79B01AC01611529
:101DD00071058105910569F069833A834B835C83C2
:101DE0000E94D00F29813A814B815C810E94420F71
:101DF00003C060E070E0CB010F900F900F900F9048
:101E0000DF91CF910895CF92DF92EF92FF926B0115
:101E10007C01621773078407950764F4CA01B9014E
:101E20006C197D098E099F090E94DF0E6C0D7D1DC6
:101E30008E1D9F1DFF90EF90DF90CF900895089525
:101E4000A1E21A2EAA1BBB1BFD010DC0AA1FBB1FBE
:101E5000EE1FFF1FA217B307E407F50720F0A21B30
:101E6000B30BE40BF50B661F771F881F991F1A949D
:101E700069F760957095809590959B01AC01BD01C7
:101E8000CF010895052E97FB1EF400940E94590F70
:101E900057FD07D00E94200F07FC03D04EF40C948E
:101EA000590F50954095309521953F4F4F4F5F4FBB
:101EB000089590958095709561957F4F8F4F9F4FB6
:101EC00008950E94720FA59F900DB49F900DA49F3E
:101ED000800D911D11240895EE0FFF1F0590F491C0
:101EE000E02D0994A29FB001B39FC001A39F700D84
:101EF000811D1124911DB29F700D811D1124911D12
:101F000008958F929F92AF92BF92CF92DF92EF92FD
:101F1000FF92CF93DF93EC01688179818A819B8165
:101F2000611571058105910521F464E279ED8BE578
:101F300097E02DE133EF41E050E00E94420F49016C
:101F40005A019B01AC01A7EAB1E40E94610F6B0149
:101F50007C01ACEEB4EFA50194010E94E10FC60E26
:101F6000D71EE81EF91EF7FE06C081E0C81AD10888
:101F7000E10880E8F80AC882D982EA82FB82C701B8
:101F8000B6019F77DF91CF91FF90EF90DF90CF90D8
:101F9000BF90AF909F908F9008950E94810F0895F9
:101FA00080E091E00E94810F08956093000170939A
:101FB000010180930201909303010895B7FF0C94EF
:101FC000610F0E94610F821B930B0895F894FFCF5D
:101FD0000100000003000C000D000B0008000900C8
:101FE0000A0000004000140054006C6566742D79EE
:101FF0002072696768742D6E00546865726520618F
:1020000072652073696D706C79002072756C6573F0
:102010003A0054686572652077696C6C20626500CF
:10202000746872656520627574746F6E73002061E8
:102030006E64207468726565204C454427730059AE
:102040006F752073686F756C64002072656D656DC7
:1020500062657200686F7720646964204C4544278C
:10206000732000626C696E6B656400416E6420725F
:1020700065706561742074686500776974682074A0
:10208000686520627574746F6E7300554E444552D6
:1020900053544F4F443F004C65742773206265676B
:1020A000696E21005741535445442E2E2E0057652A
:1020B0006C6C20646F6E6521004C6576656C2055F4
:1020C0005021004C6576656C20446F776E21004C82
:1020D0006576656C203A00486572652077696C6C9E
:1020E0002062652000446F6E277420676976652042
:1020F00075702100526570656174207468650020F8
:10210000202073657175616E63650052656D656D44
:10211000626572207468650020202020206E756D35
:10212000626572730048656C6C6F206275646479D7
:10213000210057524F4E4721212100436F72726593
:1021400063742100000000000A07DD06B206BA062B
:10215000CD06DC0600000000F809ED0D00000000CF
:0C216000710CED0DF30B0C0CFE0B4F0C82
:00000001FF
